:020000040000FA
:100000000000022883160313C030850088010317FF
:10001000880189018312031383160313C6308100FC
:10002000031386018701831286018701A201A001C3
:1000300085181C2828284C280130880020085220C8
:1000400087002208642086007E20A00AA20A4C288D
:100050000230880020085220870022086420860091
:100060007E20A00AA20A4C280430880020085220D2
:1000700087002208642086007E20A00AA20A4C285D
:10008000083088002008522087002208642086005B
:100090007E20A00AA20A4C28051C1828851C40288E
:1000A00034284C2882070034F3340034CF340F3422
:1000B000CF3478343F34F334E3347834FF34CC3401
:1000C0000034F33433347620820700341134AA34F8
:1000D00011340034113444340034113419344434AC
:1000E00000344434A034113488347A20A001003024
:1000F00020080800A2010030220808004630A100B4
:100100008B01643081000B1D8328A10B802808001F
:02400E00E428A4
:02401000FF3E71
:00000001FF
