:020000040000FA
:020000000528D1
:040002000034003492
:06000A0086018801831647
:1000100003138801860183126A2011207F20392072
:100020000C282A3086007C202A3086007C202A304A
:1000300086007C20453086007C20643086007C2051
:10004000753086007C20613086007C20723086000E
:100050007C20643086007C206F3086007C202A3033
:1000600086007C202A3086007C202A3086007C2076
:1000700008002A3086007C202A3086007C202A3026
:1000800086007C20493086007C20763086007C20EB
:10009000613086007C206E3086007C202A3086000D
:1000A0007C202A3086007C202A3086007C2041304B
:1000B00086007C20783086007C20653086007C209D
:1000C0006C3086007C202A3086007C202A30860016
:1000D0007C20080008100130860076200C30860055
:1000E00076203C308600762008140800881484208E
:1000F0008420881084200800081476200800081046
:10010000C030860076200800FF30B100FF30B0001C
:0A011000B00B8828B10B8628080008
:02400E00E428A4
:02401000FF3E71
:00000001FF
