:020000040000FA
:100000000000022883160313FF3085008601870154
:10001000880183160313C630810083120313AD28B1
:1000200082073334303400343E34CF34C334CF34D9
:10003000CF343334F334A10108008207A0342034D4
:100040001834183418340034183400341834183480
:10005000A30108008207333430340034CC34CC346C
:10006000F1343F34CC34CF34C3343E34F334A101C3
:1000700008008207A0342034183442342434183461
:10008000003442341834003418341834A301080002
:1000900082073334303400343E34CF34C334CF3469
:1000A000CF343334F334A10108008207A034203464
:1000B0001834183418340034183400341834183410
:1000C000A30108008207333430340034CC34CC34FC
:1000D000F1343F34CC34CF34C3343E34F334A10153
:1000E00008008207A03420341834423424341834F1
:1000F000003442341834003418341834A301080092
:100100000A30A0008B010A3081000B1D8528A00B4E
:1001100082280800AD2821081020860023081D2011
:1001200087008020A10AA30AAD2885188A288B2879
:10013000AD2821081020860023081D20870080207C
:10014000A10AA30AAD282108622086002308712095
:1001500087008020A10AA30AAD28031C9520051C56
:0A0160009920A320AD280810AD2857
:02400E00E428A4
:02401000FF3E71
:00000001FF
