:020000040000FA
:1000000001288316FF30850000308600003087000D
:1000100003178801890183160313C63081008312F8
:100020008312A10121081C20860023082E208700AE
:100030004020A10AA30A12288207F3340034CF34E7
:100040000F34CF343E343F34F334C3341834FF34E8
:10005000CC342434F3348134A101080082071834ED
:10006000A53418340034CF3418340034F334313428
:100070001834FF3442342434F3348134A3010800AB
:10008000F430A0008B01F43081000B1D4528A00B3B
:0400900042280800FA
:02400E00E428A4
:02401000FF3E71
:00000001FF
